:100000000C94EA000C94FC000C94FC000C94FC0092
:100010000C94FC000C94FC000C94FC000C94FC0070
:100020000C94FC000C94FC000C94FC000C94FC0060
:100030000C94FC000C94FC000C94FC000C94FC0050
:100040000C94FC000C94FC000C94FC000C94FC0040
:100050000C94FC000C94FC000C94FC000C94FC0030
:100060000C94FC000C94FC0012803A04120017134C
:10007000180132B619021A7A030A0C003E00703ACF
:100080007135721173F0A20115027A207B107C1E6B
:100090007D357E5A7F69807681808288838F8496C1
:1000A00085A386AF87C488D789E813C000001000F5
:1000B0000D401418A505AB072495253326E39F783A
:1000C000A068A103A6D8A7D8A8F0A990AA9413C5A0
:1000D000300031000E610F4B16021E0721022291E3
:1000E0002907330B350B371D3871392A3C784D40C1
:1000F0004E20690074108D4F8E008F00900091008B
:1001000096009A00B084B10CB20EB382B80A430ACA
:1001100044F0453446584728483A59885A885B4441
:100120005C675D495E0E6C0A6D556E116F9E6A408C
:100130000140026013C74F80508051005222535E2D
:100140005480589E41083F00750576E14C007701C8
:100150003D484B09C960564034113B12A4829600B9
:100160009730982099309A849B299C039D4C9E3F00
:1001700078047901C8F0790FC8007910C87E790A2F
:10018000C880790BC801790CC80F790DC82079098E
:10019000C8807902C8C07903C8407905C83079267B
:1001A000FFFF3E1A722273F21716180432A41902C6
:1001B0001A7A030AFFFF12008C00040040C0146A80
:1001C0004F80508051005222535E54803D40FFFFCB
:1001D0005244590011241FBECFEFD8E0DEBFCDBF7F
:1001E00021E0A0E0B1E001C01D92A430B207E1F728
:1001F0000E94FD010C94B9020C940000EF92FF9252
:100200000F931F93CF93DF93CDB7DEB7C054D14088
:100210000FB6F894DEBF0FBECDBFE0EDF1E09491D4
:100220008091C00085FFFCCF9093C6008091C000F4
:1002300085FFFCCF319684918111F1CF4B9BFECF8E
:100240004B99FECF68E770E0AE014B5B5E4F9E01BD
:100250002F5B3E4FFE013596CE0101967C014A99F7
:10026000FECF86B199B18F0104501109907F8F7034
:10027000892BD8018C934A9BFECF4A99FECF86B139
:1002800099B18F0103501109907F8F70892BD8018C
:100290008C934A9BFECF4A99FECF86B199B18F01CC
:1002A00002501109907F8F70892BD8018C934A9B43
:1002B000FECF4A99FECF86B199B18F010150110945
:1002C000907F8F70892BD8018C934A9BFECF4A99DF
:1002D000FECF86B199B1907F8F70892B8083D70133
:1002E0008D917D018093C6004A9BFECF3596E41721
:1002F000F50709F0B4CF8091C00085FFFCCFFE0167
:10030000EF5BFF4F81918093C6008091C00085FF15
:10031000FCCFE217F307B1F76150710909F09ACFEA
:10032000C05CDE4F0FB6F894DEBF0FBECDBFDF91CD
:10033000CF911F910F91FF90EF9008958093BB0094
:1003400084E88093BC008091BC0087FFFCCF809143
:10035000B900887F90E070E08617970709F4089548
:100360000E94EE01CF93DF93D82FC62F84EA8093AB
:10037000BC009091BC0097FFFCCF9091B900987F92
:100380009830C1F468E182E40E949E0168E28D2FFA
:100390000E949E0168E28C2F0E949E0184E9809356
:1003A000BC008FE99FE00197F1F700C00000DF91EA
:1003B000CF9108950E94EE01CF93DF93EC0103C02B
:1003C0000E94B2012296FE018491319664918F3F82
:1003D000B9F76F3FA9F7DF91CF910895259A90E281
:1003E00085B1892785B92FEF31EE84E02150304067
:1003F0008040E1F700C00000F3CF1092030110929B
:10040000020180E090E023E0E22EF12C04E010E015
:10041000C1E0D0E032E0C32ED12C43E4642E59E099
:10042000752E68E4862E9924939478E1A72EE6E051
:10043000BE2E10C08230910509F067C00E94FE00F8
:10044000F0920101E092000183E090E090930301BB
:1004500080930201009771F7F894239A8091B60077
:100460008F798093B6006092B0007092B1001092C4
:10047000B30087B1807F87B98AB183708AB92FEFC3
:100480008BE792E9215080409040E1F700C00000E6
:100490008091B9008C7F8093B9008092B80010924F
:1004A000C5009092C4008091C00082608093C0001B
:1004B000A092C100B092C20060E882E10E94B20145
:1004C0002FEF81EE94E0215080409040E1F700C092
:1004D000000088E690E00E94DC0160E285E10E9475
:1004E000B20164E08CE00E94B20182EA91E00E94D5
:1004F000DC0186EB91E00E94DC0163E081E10E9477
:10050000B20180910201909103018230910509F4BA
:1005100097CF74F40097F9F00197C1F42198199BD3
:1005200015C0D0920101C092000182E090E08ECF10
:1005300083309105B9F08430910541F42198199BDD
:100540000AC0909301018093000180CF8091000147
:10055000909101017BCFD0930101C093000181E014
:1005600090E074CF109301010093000184E090E0CB
:060570006DCFF894FFCFEF
:00000001FF
